:03000000020003F8
:0C000300787FE4F6D8FD75810802004A01
:0300DD0001080116
:0800D4007F757EB7DEFEDFFC44
:0100DC002201
:0D00C6007D14AF051DEF60051200D480F51C
:0100D300220A
:10008F00E508600F30870C1200D4E4F508308709BB
:0B009F007F01222087037508017F000D
:0100AA002233
:1000AB00E4FCC280C281C28712008FAC07EC6004F3
:0B00BB00B281C287B2801200C680ED47
:10000F000200ABE493A3F8E493A34003F68001F25C
:10001F0008DFF48029E493A3F85407240CC8C333F2
:10002F00C4540F4420C8834004F456800146F6DFC1
:10003F00E4800B01020408102040809000DDE47E74
:10004F00019360BCA3FF543F30E509541FFEE493B6
:10005F00A360010ECF54C025E060A840B8E493A37D
:10006F00FAE493A3F8E493A3C8C582C8CAC583CAA8
:10007F00F0A3C8C582C8CAC583CADFE9DEE780BE60
:0100E000001F
:00000001FF
